{
  "_format": "hh-sol-artifact-1",
  "contractName": "SmartWallet",
  "sourceName": "contracts/wallet/SmartWallet.sol",
  "abi": [
    {
      "inputs": [
        {
          "internalType": "address",
          "name": "_owner",
          "type": "address"
        },
        {
          "internalType": "address",
          "name": "_bundler",
          "type": "address"
        }
      ],
      "stateMutability": "nonpayable",
      "type": "constructor"
    },
    {
      "inputs": [
        {
          "internalType": "address[]",
          "name": "toArr",
          "type": "address[]"
        },
        {
          "internalType": "uint256[]",
          "name": "valueArr",
          "type": "uint256[]"
        },
        {
          "internalType": "bytes[]",
          "name": "dataArr",
          "type": "bytes[]"
        },
        {
          "internalType": "uint32",
          "name": "deadline",
          "type": "uint32"
        },
        {
          "internalType": "bytes",
          "name": "signature",
          "type": "bytes"
        }
      ],
      "name": "atomSignCall",
      "outputs": [],
      "stateMutability": "nonpayable",
      "type": "function"
    },
    {
      "inputs": [
        {
          "internalType": "address[]",
          "name": "toArr",
          "type": "address[]"
        },
        {
          "internalType": "uint256[]",
          "name": "valueArr",
          "type": "uint256[]"
        },
        {
          "internalType": "bytes[]",
          "name": "dataArr",
          "type": "bytes[]"
        }
      ],
      "name": "batchCall",
      "outputs": [],
      "stateMutability": "nonpayable",
      "type": "function"
    },
    {
      "inputs": [],
      "name": "bundler",
      "outputs": [
        {
          "internalType": "address",
          "name": "",
          "type": "address"
        }
      ],
      "stateMutability": "view",
      "type": "function"
    },
    {
      "inputs": [],
      "name": "makeAtomSignInvalid",
      "outputs": [],
      "stateMutability": "nonpayable",
      "type": "function"
    },
    {
      "inputs": [],
      "name": "owner",
      "outputs": [
        {
          "internalType": "address",
          "name": "",
          "type": "address"
        }
      ],
      "stateMutability": "view",
      "type": "function"
    },
    {
      "inputs": [
        {
          "internalType": "bytes32",
          "name": "",
          "type": "bytes32"
        }
      ],
      "name": "usedMsgHashes",
      "outputs": [
        {
          "internalType": "bool",
          "name": "",
          "type": "bool"
        }
      ],
      "stateMutability": "view",
      "type": "function"
    },
    {
      "inputs": [],
      "name": "valid",
      "outputs": [
        {
          "internalType": "uint32",
          "name": "",
          "type": "uint32"
        }
      ],
      "stateMutability": "view",
      "type": "function"
    },
    {
      "stateMutability": "payable",
      "type": "receive"
    }
  ],
  "bytecode": "0x60806040526001805463ffffffff19168117905534801561001f57600080fd5b5060405161109138038061109183398101604081905261003e9161009f565b600160008190558054600160201b600160c01b0319166401000000006001600160a01b0394851602179055600280546001600160a01b031916919092161790556100d2565b80516001600160a01b038116811461009a57600080fd5b919050565b600080604083850312156100b257600080fd5b6100bb83610083565b91506100c960208401610083565b90509250929050565b610fb0806100e16000396000f3fe6080604052600436106100745760003560e01c8063ad0ffd8b1161004e578063ad0ffd8b14610107578063b75814e514610127578063c199121914610167578063ebaf3eb51461019957600080fd5b80635e93536214610080578063804acf19146100a25780638da5cb5b146100c257600080fd5b3661007b57005b600080fd5b34801561008c57600080fd5b506100a061009b366004610b32565b6101ae565b005b3480156100ae57600080fd5b506100a06100bd366004610c0e565b61030e565b3480156100ce57600080fd5b506001546100ea9064010000000090046001600160a01b031681565b6040516001600160a01b0390911681526020015b60405180910390f35b34801561011357600080fd5b506002546100ea906001600160a01b031681565b34801561013357600080fd5b50610157610142366004610cf2565b60036020526000908152604090205460ff1681565b60405190151581526020016100fe565b34801561017357600080fd5b506001546101849063ffffffff1681565b60405163ffffffff90911681526020016100fe565b3480156101a557600080fd5b506100a06106bc565b60015464010000000090046001600160a01b031633146101e95760405162461bcd60e51b81526004016101e090610d0b565b60405180910390fd5b6002546001600160a01b031633146102135760405162461bcd60e51b81526004016101e090610d4d565b60005b858110156103055760008088888481811061023357610233610d93565b90506020020160208101906102489190610da9565b6001600160a01b031687878581811061026357610263610d93565b9050602002013586868681811061027c5761027c610d93565b905060200281019061028e9190610dd9565b60405161029c929190610e20565b60006040518083038185875af1925050503d80600081146102d9576040519150601f19603f3d011682016040523d82523d6000602084013e6102de565b606091505b5091509150816102f057805160208201fd5b505080806102fd90610e46565b915050610216565b50505050505050565b6002600054036103605760405162461bcd60e51b815260206004820152601f60248201527f5265656e7472616e637947756172643a207265656e7472616e742063616c6c0060448201526064016101e0565b60026000819055546001600160a01b0316331461038f5760405162461bcd60e51b81526004016101e090610d4d565b428363ffffffff1610156103dd5760405162461bcd60e51b8152602060048201526015602482015274185d1bdb54da59db90d85b1b0e88115e1c1a5c9959605a1b60448201526064016101e0565b600080803660206103ee8683610e5f565b6103f89190610e5f565b9261040593929190610e72565b60015460405161042e93929146913060601b9160e01b6001600160e01b03191690602001610e9c565b60408051601f1981840301815291815281516020928301206000818152600390935291205490915060ff16156104a65760405162461bcd60e51b815260206004820152601a60248201527f61746f6d5369676e43616c6c3a2055736564206d73674861736800000000000060448201526064016101e0565b6104f183838080601f0160208091040260200160405190810160405280939291908181526020018383808284376000920191909152506104eb92508591506107259050565b90610778565b60015464010000000090046001600160a01b039081169116146105565760405162461bcd60e51b815260206004820152601f60248201527f61746f6d5369676e43616c6c3a20496e76616c6964205369676e61747572650060448201526064016101e0565b6105946040518060400160405280601881526020017f61746f6d5369676e43616c6c3a20636865636b2070617373000000000000000081525061079e565b60005b60ff81168a1115610692576000808c8c8460ff168181106105ba576105ba610d93565b90506020020160208101906105cf9190610da9565b6001600160a01b03168b8b8560ff168181106105ed576105ed610d93565b905060200201358a8a8660ff1681811061060957610609610d93565b905060200281019061061b9190610dd9565b604051610629929190610e20565b60006040518083038185875af1925050503d8060008114610666576040519150601f19603f3d011682016040523d82523d6000602084013e61066b565b606091505b50915091508161067d57805160208201fd5b5050808061068a90610ed4565b915050610597565b506000908152600360205260408120805460ff191660019081179091559055505050505050505050565b60015464010000000090046001600160a01b031633146106ee5760405162461bcd60e51b81526004016101e090610d0b565b6001805463ffffffff1690600061070483610ef3565b91906101000a81548163ffffffff021916908363ffffffff16021790555050565b6040517f19457468657265756d205369676e6564204d6573736167653a0a3332000000006020820152603c8101829052600090605c01604051602081830303815290604052805190602001209050919050565b600080600061078785856107e4565b9150915061079481610829565b5090505b92915050565b6107e1816040516024016107b29190610f16565b60408051601f198184030181529190526020810180516001600160e01b031663104c13eb60e21b1790526109df565b50565b600080825160410361081a5760208301516040840151606085015160001a61080e87828585610a00565b94509450505050610822565b506000905060025b9250929050565b600081600481111561083d5761083d610f64565b036108455750565b600181600481111561085957610859610f64565b036108a65760405162461bcd60e51b815260206004820152601860248201527f45434453413a20696e76616c6964207369676e6174757265000000000000000060448201526064016101e0565b60028160048111156108ba576108ba610f64565b036109075760405162461bcd60e51b815260206004820152601f60248201527f45434453413a20696e76616c6964207369676e6174757265206c656e6774680060448201526064016101e0565b600381600481111561091b5761091b610f64565b036109735760405162461bcd60e51b815260206004820152602260248201527f45434453413a20696e76616c6964207369676e6174757265202773272076616c604482015261756560f01b60648201526084016101e0565b600481600481111561098757610987610f64565b036107e15760405162461bcd60e51b815260206004820152602260248201527f45434453413a20696e76616c6964207369676e6174757265202776272076616c604482015261756560f01b60648201526084016101e0565b80516a636f6e736f6c652e6c6f67602083016000808483855afa5050505050565b6000807f7fffffffffffffffffffffffffffffff5d576e7357a4501ddfe92f46681b20a0831115610a375750600090506003610ae4565b8460ff16601b14158015610a4f57508460ff16601c14155b15610a605750600090506004610ae4565b6040805160008082526020820180845289905260ff881692820192909252606081018690526080810185905260019060a0016020604051602081039080840390855afa158015610ab4573d6000803e3d6000fd5b5050604051601f1901519150506001600160a01b038116610add57600060019250925050610ae4565b9150600090505b94509492505050565b60008083601f840112610aff57600080fd5b50813567ffffffffffffffff811115610b1757600080fd5b6020830191508360208260051b850101111561082257600080fd5b60008060008060008060608789031215610b4b57600080fd5b863567ffffffffffffffff80821115610b6357600080fd5b610b6f8a838b01610aed565b90985096506020890135915080821115610b8857600080fd5b610b948a838b01610aed565b90965094506040890135915080821115610bad57600080fd5b50610bba89828a01610aed565b979a9699509497509295939492505050565b60008083601f840112610bde57600080fd5b50813567ffffffffffffffff811115610bf657600080fd5b60208301915083602082850101111561082257600080fd5b600080600080600080600080600060a08a8c031215610c2c57600080fd5b893567ffffffffffffffff80821115610c4457600080fd5b610c508d838e01610aed565b909b50995060208c0135915080821115610c6957600080fd5b610c758d838e01610aed565b909950975060408c0135915080821115610c8e57600080fd5b610c9a8d838e01610aed565b909750955060608c0135915063ffffffff82168214610cb857600080fd5b90935060808b01359080821115610cce57600080fd5b50610cdb8c828d01610bcc565b915080935050809150509295985092959850929598565b600060208284031215610d0457600080fd5b5035919050565b60208082526022908201527f6f6e6c794f776e65723a2063616c6c6572206973206e6f7420746865206f776e60408201526132b960f11b606082015260800190565b60208082526026908201527f6f6e6c7942756e646c65723a2063616c6c6572206973206e6f742074686520626040820152653ab7323632b960d11b606082015260800190565b634e487b7160e01b600052603260045260246000fd5b600060208284031215610dbb57600080fd5b81356001600160a01b0381168114610dd257600080fd5b9392505050565b6000808335601e19843603018112610df057600080fd5b83018035915067ffffffffffffffff821115610e0b57600080fd5b60200191503681900382131561082257600080fd5b8183823760009101908152919050565b634e487b7160e01b600052601160045260246000fd5b600060018201610e5857610e58610e30565b5060010190565b8181038181111561079857610798610e30565b60008085851115610e8257600080fd5b83861115610e8f57600080fd5b5050820193919092039150565b848682379093019182526bffffffffffffffffffffffff191660208201526001600160e01b0319919091166034820152603801919050565b600060ff821660ff8103610eea57610eea610e30565b60010192915050565b600063ffffffff808316818103610f0c57610f0c610e30565b6001019392505050565b600060208083528351808285015260005b81811015610f4357858101830151858201604001528201610f27565b506000604082860101526040601f19601f8301168501019250505092915050565b634e487b7160e01b600052602160045260246000fdfea2646970667358221220c7f04886a2a0567937ec7d91b75ad7d32c45bc8c855123bee9909532f307277f64736f6c63430008120033",
  "linkReferences": {},
  "deployedLinkReferences": {}
}